{
  "contractName": "FundRaising",
  "abi": [
    {
      "inputs": [
        {
          "internalType": "uint256",
          "name": "_voteThresh",
          "type": "uint256"
        },
        {
          "internalType": "uint256",
          "name": "_choiceThresh",
          "type": "uint256"
        }
      ],
      "payable": false,
      "stateMutability": "nonpayable",
      "type": "constructor"
    },
    {
      "constant": true,
      "inputs": [
        {
          "internalType": "address",
          "name": "",
          "type": "address"
        }
      ],
      "name": "allowedAddresses",
      "outputs": [
        {
          "internalType": "string",
          "name": "",
          "type": "string"
        }
      ],
      "payable": false,
      "stateMutability": "view",
      "type": "function"
    },
    {
      "constant": true,
      "inputs": [],
      "name": "choiceThresh",
      "outputs": [
        {
          "internalType": "uint256",
          "name": "",
          "type": "uint256"
        }
      ],
      "payable": false,
      "stateMutability": "view",
      "type": "function"
    },
    {
      "constant": true,
      "inputs": [
        {
          "internalType": "uint256",
          "name": "",
          "type": "uint256"
        }
      ],
      "name": "choices",
      "outputs": [
        {
          "internalType": "string",
          "name": "",
          "type": "string"
        }
      ],
      "payable": false,
      "stateMutability": "view",
      "type": "function"
    },
    {
      "constant": true,
      "inputs": [],
      "name": "maxVotes",
      "outputs": [
        {
          "internalType": "uint256",
          "name": "",
          "type": "uint256"
        }
      ],
      "payable": false,
      "stateMutability": "view",
      "type": "function"
    },
    {
      "constant": true,
      "inputs": [],
      "name": "n_choices",
      "outputs": [
        {
          "internalType": "uint256",
          "name": "",
          "type": "uint256"
        }
      ],
      "payable": false,
      "stateMutability": "view",
      "type": "function"
    },
    {
      "constant": true,
      "inputs": [],
      "name": "n_voters",
      "outputs": [
        {
          "internalType": "uint256",
          "name": "",
          "type": "uint256"
        }
      ],
      "payable": false,
      "stateMutability": "view",
      "type": "function"
    },
    {
      "constant": true,
      "inputs": [],
      "name": "owner",
      "outputs": [
        {
          "internalType": "address payable",
          "name": "",
          "type": "address"
        }
      ],
      "payable": false,
      "stateMutability": "view",
      "type": "function"
    },
    {
      "constant": true,
      "inputs": [
        {
          "internalType": "string",
          "name": "",
          "type": "string"
        }
      ],
      "name": "voteChoices",
      "outputs": [
        {
          "internalType": "uint256",
          "name": "",
          "type": "uint256"
        }
      ],
      "payable": false,
      "stateMutability": "view",
      "type": "function"
    },
    {
      "constant": true,
      "inputs": [],
      "name": "voteCount",
      "outputs": [
        {
          "internalType": "uint256",
          "name": "",
          "type": "uint256"
        }
      ],
      "payable": false,
      "stateMutability": "view",
      "type": "function"
    },
    {
      "constant": true,
      "inputs": [],
      "name": "voteThresh",
      "outputs": [
        {
          "internalType": "uint256",
          "name": "",
          "type": "uint256"
        }
      ],
      "payable": false,
      "stateMutability": "view",
      "type": "function"
    },
    {
      "constant": true,
      "inputs": [
        {
          "internalType": "uint256",
          "name": "",
          "type": "uint256"
        }
      ],
      "name": "voters",
      "outputs": [
        {
          "internalType": "address",
          "name": "",
          "type": "address"
        }
      ],
      "payable": false,
      "stateMutability": "view",
      "type": "function"
    },
    {
      "constant": true,
      "inputs": [
        {
          "internalType": "address",
          "name": "",
          "type": "address"
        }
      ],
      "name": "votes",
      "outputs": [
        {
          "internalType": "string",
          "name": "",
          "type": "string"
        }
      ],
      "payable": false,
      "stateMutability": "view",
      "type": "function"
    },
    {
      "constant": true,
      "inputs": [],
      "name": "winningChoice",
      "outputs": [
        {
          "internalType": "uint256",
          "name": "",
          "type": "uint256"
        }
      ],
      "payable": false,
      "stateMutability": "view",
      "type": "function"
    },
    {
      "constant": false,
      "inputs": [
        {
          "internalType": "string",
          "name": "c",
          "type": "string"
        }
      ],
      "name": "addChoices",
      "outputs": [],
      "payable": false,
      "stateMutability": "nonpayable",
      "type": "function"
    },
    {
      "constant": false,
      "inputs": [
        {
          "internalType": "address",
          "name": "adrs",
          "type": "address"
        }
      ],
      "name": "addAddress",
      "outputs": [],
      "payable": false,
      "stateMutability": "nonpayable",
      "type": "function"
    },
    {
      "constant": false,
      "inputs": [
        {
          "internalType": "uint256",
          "name": "choice_no",
          "type": "uint256"
        }
      ],
      "name": "vote",
      "outputs": [],
      "payable": false,
      "stateMutability": "nonpayable",
      "type": "function"
    },
    {
      "constant": true,
      "inputs": [],
      "name": "checkWinner",
      "outputs": [
        {
          "internalType": "string",
          "name": "",
          "type": "string"
        }
      ],
      "payable": false,
      "stateMutability": "view",
      "type": "function"
    },
    {
      "constant": false,
      "inputs": [],
      "name": "add",
      "outputs": [],
      "payable": true,
      "stateMutability": "payable",
      "type": "function"
    }
  ],
  "bytecode": "0x608060405234801561001057600080fd5b506040516117323803806117328339818101604052604081101561003357600080fd5b81019080805190602001909291908051906020019092919050505033600860006101000a81548173ffffffffffffffffffffffffffffffffffffffff021916908373ffffffffffffffffffffffffffffffffffffffff1602179055508060078190555081600a819055506000600981905550600060058190555060006006819055506000600b819055505050611664806100ce6000396000f3fe6080604052600436106101095760003560e01c80638da5cb5b11610095578063d8bff5a511610064578063d8bff5a5146105d0578063da58c7d91461069a578063eb66285e14610715578063f6fd7fde14610740578063f7eaf563146107f457610109565b80638da5cb5b14610493578063a3fcfd43146104ea578063ad38867e14610515578063c6384071146105a557610109565b80634f49da54116100dc5780634f49da541461026e57806367363a4e1461029957806369a7a90914610361578063777c3acf1461038c57806384bed23d146103b757610109565b80630121b93f1461010e57806338eada1c146101495780634120657a1461019a5780634f2be91f14610264575b600080fd5b34801561011a57600080fd5b506101476004803603602081101561013157600080fd5b810190808035906020019092919050505061081f565b005b34801561015557600080fd5b506101986004803603602081101561016c57600080fd5b81019080803573ffffffffffffffffffffffffffffffffffffffff169060200190929190505050610c99565b005b3480156101a657600080fd5b506101e9600480360360208110156101bd57600080fd5b81019080803573ffffffffffffffffffffffffffffffffffffffff169060200190929190505050610efe565b6040518080602001828103825283818151815260200191508051906020019080838360005b8381101561022957808201518184015260208101905061020e565b50505050905090810190601f1680156102565780820380516001836020036101000a031916815260200191505b509250505060405180910390f35b61026c610fae565b005b34801561027a57600080fd5b50610283610fb0565b6040518082815260200191505060405180910390f35b3480156102a557600080fd5b5061035f600480360360208110156102bc57600080fd5b81019080803590602001906401000000008111156102d957600080fd5b8201836020820111156102eb57600080fd5b8035906020019184600183028401116401000000008311171561030d57600080fd5b91908080601f016020809104026020016040519081016040528093929190818152602001838380828437600081840152601f19601f820116905080830192505050505050509192919290505050610fb6565b005b34801561036d57600080fd5b5061037661113b565b6040518082815260200191505060405180910390f35b34801561039857600080fd5b506103a1611141565b6040518082815260200191505060405180910390f35b3480156103c357600080fd5b5061047d600480360360208110156103da57600080fd5b81019080803590602001906401000000008111156103f757600080fd5b82018360208201111561040957600080fd5b8035906020019184600183028401116401000000008311171561042b57600080fd5b91908080601f016020809104026020016040519081016040528093929190818152602001838380828437600081840152601f19601f820116905080830192505050505050509192919290505050611147565b6040518082815260200191505060405180910390f35b34801561049f57600080fd5b506104a8611175565b604051808273ffffffffffffffffffffffffffffffffffffffff1673ffffffffffffffffffffffffffffffffffffffff16815260200191505060405180910390f35b3480156104f657600080fd5b506104ff61119b565b6040518082815260200191505060405180910390f35b34801561052157600080fd5b5061052a6111a1565b6040518080602001828103825283818151815260200191508051906020019080838360005b8381101561056a57808201518184015260208101905061054f565b50505050905090810190601f1680156105975780820380516001836020036101000a031916815260200191505b509250505060405180910390f35b3480156105b157600080fd5b506105ba6112d4565b6040518082815260200191505060405180910390f35b3480156105dc57600080fd5b5061061f600480360360208110156105f357600080fd5b81019080803573ffffffffffffffffffffffffffffffffffffffff1690602001909291905050506112da565b6040518080602001828103825283818151815260200191508051906020019080838360005b8381101561065f578082015181840152602081019050610644565b50505050905090810190601f16801561068c5780820380516001836020036101000a031916815260200191505b509250505060405180910390f35b3480156106a657600080fd5b506106d3600480360360208110156106bd57600080fd5b810190808035906020019092919050505061138a565b604051808273ffffffffffffffffffffffffffffffffffffffff1673ffffffffffffffffffffffffffffffffffffffff16815260200191505060405180910390f35b34801561072157600080fd5b5061072a6113c6565b6040518082815260200191505060405180910390f35b34801561074c57600080fd5b506107796004803603602081101561076357600080fd5b81019080803590602001909291905050506113cc565b6040518080602001828103825283818151815260200191508051906020019080838360005b838110156107b957808201518184015260208101905061079e565b50505050905090810190601f1680156107e65780820380516001836020036101000a031916815260200191505b509250505060405180910390f35b34801561080057600080fd5b50610809611485565b6040518082815260200191505060405180910390f35b600a5460095410610898576040517f08c379a00000000000000000000000000000000000000000000000000000000081526004018080602001828103825260108152602001807f566f74696e6720436f6d706c657465640000000000000000000000000000000081525060200191505060405180910390fd5b60075460055410156108f5576040517f08c379a00000000000000000000000000000000000000000000000000000000081526004018080602001828103825260388152602001806115b86038913960400191505060405180910390fd5b60405160200180807f416c6c6f77656400000000000000000000000000000000000000000000000000815250600701905060405160208183030381529060405280519060200120600260003373ffffffffffffffffffffffffffffffffffffffff1673ffffffffffffffffffffffffffffffffffffffff16815260200190815260200160002060405160200180828054600181600116156101000203166002900480156109d95780601f106109b75761010080835404028352918201916109d9565b820191906000526020600020905b8154815290600101906020018083116109c5575b50509150506040516020818303038152906040528051906020012014610a4a576040517f08c379a00000000000000000000000000000000000000000000000000000000081526004018080602001828103825260408152602001806115f06040913960400191505060405180910390fd5b60008181548110610a5757fe5b90600052602060002001600160003373ffffffffffffffffffffffffffffffffffffffff1673ffffffffffffffffffffffffffffffffffffffff1681526020019081526020016000209080546001816001161561010002031660029004610abf92919061148b565b506001600360008381548110610ad157fe5b906000526020600020016040518082805460018160011615610100020316600290048015610b365780601f10610b14576101008083540402835291820191610b36565b820191906000526020600020905b815481529060010190602001808311610b22575b50509150509081526020016040518091039020600082825401925050819055506000600360008381548110610b6757fe5b906000526020600020016040518082805460018160011615610100020316600290048015610bcc5780601f10610baa576101008083540402835291820191610bcc565b820191906000526020600020905b815481529060010190602001808311610bb8575b505091505090815260200160405180910390205490506040518060400160405280600581526020017f566f746564000000000000000000000000000000000000000000000000000000815250600260003373ffffffffffffffffffffffffffffffffffffffff1673ffffffffffffffffffffffffffffffffffffffff1681526020019081526020016000209080519060200190610c6a929190611512565b50600b54811115610c845780600b8190555081600c819055505b60016009600082825401925050819055505050565b600860009054906101000a900473ffffffffffffffffffffffffffffffffffffffff1673ffffffffffffffffffffffffffffffffffffffff163373ffffffffffffffffffffffffffffffffffffffff1614610d5c576040517f08c379a00000000000000000000000000000000000000000000000000000000081526004018080602001828103825260158152602001807f4f6e6c79206f776e657220697320616c6c6f776564000000000000000000000081525060200191505060405180910390fd5b60405160200180807f416c6c6f77656400000000000000000000000000000000000000000000000000815250600701905060405160208183030381529060405280519060200120600260008373ffffffffffffffffffffffffffffffffffffffff1673ffffffffffffffffffffffffffffffffffffffff1681526020019081526020016000206040516020018082805460018160011615610100020316600290048015610e405780601f10610e1e576101008083540402835291820191610e40565b820191906000526020600020905b815481529060010190602001808311610e2c575b50509150506040516020818303038152906040528051906020012014610efb5760016006600082825401925050819055506040518060400160405280600781526020017f416c6c6f77656400000000000000000000000000000000000000000000000000815250600260008373ffffffffffffffffffffffffffffffffffffffff1673ffffffffffffffffffffffffffffffffffffffff1681526020019081526020016000209080519060200190610ef9929190611512565b505b50565b60026020528060005260406000206000915090508054600181600116156101000203166002900480601f016020809104026020016040519081016040528092919081815260200182805460018160011615610100020316600290048015610fa65780601f10610f7b57610100808354040283529160200191610fa6565b820191906000526020600020905b815481529060010190602001808311610f8957829003601f168201915b505050505081565b565b60055481565b600860009054906101000a900473ffffffffffffffffffffffffffffffffffffffff1673ffffffffffffffffffffffffffffffffffffffff163373ffffffffffffffffffffffffffffffffffffffff1614611079576040517f08c379a00000000000000000000000000000000000000000000000000000000081526004018080602001828103825260158152602001807f4f6e6c79206f776e657220697320616c6c6f776564000000000000000000000081525060200191505060405180910390fd5b60008190806001815401808255809150509060018203906000526020600020016000909192909190915090805190602001906110b6929190611512565b5050600160056000828254019250508190555060006003826040518082805190602001908083835b6020831061110157805182526020820191506020810190506020830392506110de565b6001836020036101000a03801982511681845116808217855250505050505090500191505090815260200160405180910390208190555050565b60075481565b600b5481565b6003818051602081018201805184825260208301602085012081835280955050505050506000915090505481565b600860009054906101000a900473ffffffffffffffffffffffffffffffffffffffff1681565b600c5481565b6060600a54600954101561121d576040517f08c379a00000000000000000000000000000000000000000000000000000000081526004018080602001828103825260148152602001807f566f74696e67204e6f7420436f6d706c6574656400000000000000000000000081525060200191505060405180910390fd5b6000600c548154811061122c57fe5b906000526020600020018054600181600116156101000203166002900480601f0160208091040260200160405190810160405280929190818152602001828054600181600116156101000203166002900480156112ca5780601f1061129f576101008083540402835291602001916112ca565b820191906000526020600020905b8154815290600101906020018083116112ad57829003601f168201915b5050505050905090565b60095481565b60016020528060005260406000206000915090508054600181600116156101000203166002900480601f0160208091040260200160405190810160405280929190818152602001828054600181600116156101000203166002900480156113825780601f1061135757610100808354040283529160200191611382565b820191906000526020600020905b81548152906001019060200180831161136557829003601f168201915b505050505081565b6004818154811061139757fe5b906000526020600020016000915054906101000a900473ffffffffffffffffffffffffffffffffffffffff1681565b60065481565b600081815481106113d957fe5b906000526020600020016000915090508054600181600116156101000203166002900480601f01602080910402602001604051908101604052809291908181526020018280546001816001161561010002031660029004801561147d5780601f106114525761010080835404028352916020019161147d565b820191906000526020600020905b81548152906001019060200180831161146057829003601f168201915b505050505081565b600a5481565b828054600181600116156101000203166002900490600052602060002090601f016020900481019282601f106114c45780548555611501565b8280016001018555821561150157600052602060002091601f016020900482015b828111156115005782548255916001019190600101906114e5565b5b50905061150e9190611592565b5090565b828054600181600116156101000203166002900490600052602060002090601f016020900481019282601f1061155357805160ff1916838001178555611581565b82800160010185558215611581579182015b82811115611580578251825591602001919060010190611565565b5b50905061158e9190611592565b5090565b6115b491905b808211156115b0576000816000905550600101611598565b5090565b9056fe566f746520616c6c6f776564206f6e6c79207768656e206e756d626572206f662063686f69636573203e3d2063686f696365546872657368566f746572206f6e6c7920616c6c6f77656420746f20766f7465206966206164646564206279206f776e657220616e6420766f74696e67203173742074696d65a265627a7a723158203175c96b8f5975a95db0ba43387ffe3af6857b91948c74b12acd54dfcf4914ce64736f6c63430005100032",
  "source": "pragma solidity >=0.4.21 <0.6.0;\r\n\r\n\r\ncontract FundRaising {\r\n\r\n    string[] public choices;\r\n    mapping(address => string) public votes;\r\n    mapping(address => string) public allowedAddresses;\r\n    mapping(string => uint256) public voteChoices;\r\n\r\n    address[] public voters;\r\n    uint256 public n_choices;\r\n    uint256 public n_voters;\r\n    uint256 public choiceThresh;\r\n    address payable public owner;\r\n    uint256 public voteCount;\r\n    uint256 public voteThresh;\r\n    uint256 public maxVotes;\r\n    uint256 public winningChoice;\r\n\r\n\r\n\r\n\r\n\r\n\r\n    constructor(uint256 _voteThresh, uint256 _choiceThresh) public {\r\n        owner = msg.sender;\r\n        choiceThresh = _choiceThresh;\r\n        voteThresh = _voteThresh;\r\n        voteCount = 0;\r\n        n_choices = 0;\r\n        n_voters = 0;\r\n        maxVotes = 0;\r\n    }\r\n\r\n    modifier onlyOwner {\r\n        require(msg.sender == owner, \"Only owner is allowed\");\r\n        _;\r\n    }\r\n\r\n\r\n    modifier choiceThreshReached {\r\n        require(n_choices >= choiceThresh, \"Vote allowed only when number of choices >= choiceThresh\");\r\n        _;\r\n    }\r\n\r\n    modifier addressCanVote {\r\n        require(keccak256(abi.encodePacked(allowedAddresses[msg.sender])) == keccak256(abi.encodePacked(\"Allowed\")),\r\n         \"Voter only allowed to vote if added by owner and voting 1st time\");\r\n        _;\r\n    }\r\n\r\n\r\n    modifier votingCompleted {\r\n        require(voteCount>=voteThresh, \"Voting Not Completed\");\r\n        _;\r\n    }\r\n\r\n    modifier votingNotCompleted {\r\n        require(voteCount<voteThresh, \"Voting Completed\");\r\n        _;\r\n    }\r\n\r\n\r\n    function addChoices (string memory c) public onlyOwner {\r\n        choices.push(c);\r\n        n_choices += 1;\r\n        voteChoices[c] = 0;\r\n\r\n    }\r\n\r\n    function addAddress(address adrs)public onlyOwner{\r\n\r\n        if (!(keccak256(abi.encodePacked(allowedAddresses[adrs])) == keccak256(abi.encodePacked(\"Allowed\")))){\r\n            n_voters += 1;\r\n            allowedAddresses[adrs] = \"Allowed\";\r\n\r\n        }\r\n\r\n\r\n    }\r\n\r\n    function vote(uint256 choice_no) public votingNotCompleted choiceThreshReached addressCanVote {\r\n        votes[msg.sender] = choices[choice_no];\r\n        voteChoices[choices[choice_no]] += 1;\r\n        uint256 currVotes = voteChoices[choices[choice_no]];\r\n        allowedAddresses[msg.sender] = \"Voted\";\r\n        if (currVotes>maxVotes){\r\n            maxVotes = currVotes;\r\n            winningChoice = choice_no;\r\n        }\r\n        voteCount += 1;\r\n    }\r\n\r\n    function checkWinner () public view votingCompleted returns(string memory){\r\n        return choices[winningChoice];\r\n\r\n    }\r\n\r\n    function add() public payable {\r\n        // donations[msg.sender] += msg.value;\r\n        // donatedAmount += msg.value;\r\n        // donors.push(msg.sender);\r\n    }\r\n}\r\n",
  "sourcePath": "D:\\Semester8\\IBC\\truffle\\fundRaising\\contracts\\FundRaising.sol",
  "compiler": {
    "name": "solc",
    "version": "0.5.16+commit.9c3226ce.Emscripten.clang"
  },
  "schemaVersion": "3.1.0",
  "updatedAt": "2020-05-31T02:19:18.713Z",
  "networkType": "ethereum",
  "devdoc": {
    "methods": {}
  },
  "userdoc": {
    "methods": {}
  }
}